:0400000002001132B7
:03000B00020106E9
:20006A00750801750902750A05750B09750C00750D00750E01750F037510007511017512CA
:20008A0000751300751401751503751600751702751800751900751A00751CFC751D24753C
:2000AA001EBA751FAE7520667521CE7522DE7523A47524FE7525EE7526007527F47528F62F
:2000CA0075295E752AD8752B3E752CDA752DD2752EDC752F7675305075380075390A753A34
:1C00EA0001753B00753C00753D01753E01753F0075400075410075420002000E4B
:03000E0002066D7A
:200106001531758AB0758C3C32AF82E4B532030201EF7401B5320280607402B53202800364
:20012600020237EF75F006A4FE24082405F9E704F7EE24082405F98705BD0A02800302023A
:2001460037EE24082404F98705BD0518EE24082404F87600EE24082405F876007404B53300
:2001660018020237EE24082405F87600EE24082404F9E7FE04F7020237EF75F006A4FE24FF
:20018600082403F9E704F7EE24082403F98705BD0A028003020237EE24082402F98705BD80
:2001A6000533EE24082402F87600EE24082403F876007404B53303020237EE240804F9E708
:2001C600FD24F85024EE2408F98705BD02005019751A018014EE24082403F87600EE2408D8
:2001E6002402F9E7FE04F78048EF75F006A4FF240804F9E704F7EF2408F98706BE0219EFC1
:20020600240804F98706BE040FEF2408F87600EF240804F876008019EF240804F98706BE3F
:200226000A0FEF240804F87600EF2408F9E7FF04F722858290C2B0D51BFDD2B022AF82E54B
:20024600384FF590C2B1D51BFDD2B122858290C2B2D51BFDD2B222858290C2B7D51BFDD21A
:20026600B722E582FF600B75350A75360075370B80097535007536117537112274F6253922
:20028600504A740AB5390E850834850935850A36850B37800C850A34850B35850C36850DC7
:2002A60037E534241CF98782120238E535241CF98782120243E536241CF98782120252E5FF
:2002C60037241CF9878212025D0203BD7409B53937850A34850B35850C36850D37E5342475
:2002E6001CF98782120238E535241CF98782120243E536241CF98782120252E537241CF9C3
:20030600878212025D0203BD740C2539241CF98782120238E539FF24F7500302039FEFF51C
:20032600F0240B83F582E5F0240D83F583E47347525D656D78838B9603030303030303034A
:200346000375350A850836850937804D75350A850A36850B378042853A82120268803A858D
:200366003D82120268803275350A850E36850F37802775350A851036851137801C853E826E
:20038600120268801475350A851436851537800975350A851636851737E535241CF98782B6
:2003A600120243E536241CF98782120252E537241CF9878212025D22E53D601EE53B701AE2
:2003C600E50EB50815E50FB50910E510B50A0BE511B50B06753B01753F08E53E601EE53CE6
:2003E600701AE514B50815E515B50910E516B50A0BE517B50B06753C01753F0822E53F603F
:2004060033E540700675400175410AE531B543028022853143E541600BC2B31541E54170F5
:200426000375420AE542600CD2B31542E5427004F540153F22E51A600C751A0074FD253F6E
:200446004003753F0322E54A700575451EF547754C00754A01221545E54560030204F975C4
:20046600451EE54C60030204F90547E54724FA40030204F9754C0174F62539500975390017
:200486007544000204F9E539FF24F750030204F9EFF5F0240B83F582E5F0240D83F583E432
:2004A60073B9BEC3C8D6DBE0EEF3040404040404040404753901803B7539028036753903AA
:2004C6008031E53D600575390480287539068023753905801E7539068019E53E6005753959
:2004E60007801075390A800B753908800675390A754401754A0022E54B60030205F4754644
:200506001E75480074F625395018E54C60030205F4740AB5390675390B0205F475390A025B
:2005260005F47409B5391EE54D60030205F474FE2549400505490205F475390B7549007549
:2005460044010205F4E539FF24F750030205F4EFF5F0240B83F582E5F0240D83F583E4737A
:20056600788694A2B0BECCDAE805050505050505050575320075330475820012010F806EBE
:2005860075320175330475820012010F8060E53A6005753A008057753A018052E53D6005F5
:2005A600753D008049753D01804475320075330475820112010F80367532017533047582D5
:2005C6000112010F8028E53E6005753E00801F753E01801A75320075330475820212010FB4
:2005E600800C75320175330475820212010F754D00754B01221546E546702375461EE54D31
:20060600701C0548E54824FA5014754D01754400740BB53909753909750C00750D00754BE0
:20062600002220B40D7401B54A08C2B3754E2D7550017401B5500DE54E6004154E8005D232
:20064600B375500020B50D7401B54B08C2B3754F2D7551017401B5510DE54F6004154F808C
:2006660005D2B375510022D2B0D2B1D2B2D2B7D2B4D2B575340075350075360075370075C4
:200686008901758AB0758C3CD28CD2A9D2AF75311475440175451E754700754C00754A01FB
:2006A60075461E754800754D00754B0112062830B40312044C20B40312045C30B50312044B
:2006C600FD20B5031205FB1202821203BE12040312043B740AB53103753800E53170CD757E
:1806E6003114E54460C675380175320275330375820012010F80B522F6
:06004000E4787FF6D8FD14
:20001E007900E94400601B7A00900702780175A000E493F2A308B8000205A0D9F4DAF2757F
:02003E00A0FF21
:200046007800E84400600A790175A000E4F309D8FC7800E84400600C7900900001E4F0A3B8
:04006600D8FCD9FAEF
:0D0011007581511206FEE582600302000EAB
:0406FE0075820022DF
:00000001FF
